S02A000032382E50415353574F52445F494E434F52524543545F52455345545F53595354454D2E73726563C1
S113000029C0000042C0000040C000003EC0000003
S11300103CC000003AC0000038C0000036C00000F8
S113002034C0000032C0000030C000002EC0000008
S11300302CC000002AC0000028C0000026C0000018
S113004024C0000022C0000020C000001EC0000028
S11300501CC0000011241FBECFE5D4E0DEBFCDBF1D
S113006011E0A0E6B0E0ECE5F6E002C005900D92E8
S1130070A031B107D9F711E0A0E1B1E001C01D92B0
S1130080AA31B107E1F778D2E7C2BACF85BBA89805
S1130090A998AA9A8FEC97E00197F1F700C00000A5
S11300A0AA988FE99FE00197F1F700C00000089536
S11300B085BBA89AA998AA9A8FEC97E00197F1F7C3
S11300C000C00000AA988FE99FE00197F1F700C0F3
S11300D000000895CF93C82F807FD8DF8C2F82959E
S11300E0807FD4DFCF9108958FEF84BB87E081BBFD
S11300F082E0F0DF88E2EEDF8EE0ECDF86E0EADF2C
S113010081E0E8CFCF93C82F807FD2DF8C2F8295F8
S1130110807FCEDFCF910895CF93DF93EC01888168
S1130120882371F02196EEDF8FEF90E7A2E08150F3
S11301309040A040E1F700C000008991882399F71E
S1130140DF91CF9108955F926F927F928F929F92E9
S1130150AF92BF92CF92DF92EF92FF920F931F93D1
S1130160CF93DF931092130110921201CFE0D0EFDE
S11301700F2EF0E6EF2EF0E0FF2EF02D04E111E05B
S11301800F2EF1E38F2EF02D0F2EF4E3BF2EF02D62
S11301900F2EF7E3DF2EF02D0F2EF0E35F2EF02D60
S11301A00F2EF2E37F2EF02D0F2EF5E3AF2EF02D60
S11301B00F2EF8E3CF2EF02D0F2EF3E36F2EF02D3C
S11301C00F2EF6E39F2EF02DC2BBD1BB82B3806EFF
S11301D082BB809919C0C7019FDF80911201909161
S11301E01301F801E80FF91FD082019690931301CF
S11301F0809312018FEF90E7A2E081509040A040DD
S1130200E1F700C0000037C0819919C0C70184DF3D
S11302108091120190911301F801E80FF91FB08247
S1130220019690931301809312018FEF90E7A2E05F
S113023081509040A040E1F700C000001CC08299AA
S113024019C0C70169DF8091120190911301F8016F
S1130250E80FF91F80820196909313018093120195
S11302608FEF90E7A2E081509040A040E1F700C0FA
S1130270000001C080B3C2BBD1BB82B3806D82BB1E
S1130280809919C0C70148DF809112019091130130
S1130290F801E80FF91FC08201969093130180932F
S11302A012018FEF90E7A2E081509040A040E1F767
S11302B000C0000050C0819919C0C7012DDF809192
S11302C0120190911301F801E80FF91FA082019621
S11302D090931301809312018FEF90E7A2E0815075
S11302E09040A040E1F700C0000035C0829919C0D9
S11302F0C70112DF8091120190911301F801E80FF8
S1130300F91F7082019690931301809312018FEF6D
S113031090E7A2E081509040A040E1F700C00000C7
S11303201AC0839918C0C701F7DE80911201909119
S11303301301F801E80FF91F5082019690931301FD
S1130340809312018FEF90E7A2E081509040A0408B
S1130350E1F700C00000C2BBD1BB82B3806B82BB9B
S113036080991AC0C701D8DE8091120190911301BF
S1130370F801E80FF91F29E32083019690931301F4
S1130380809312018FEF90E7A2E081509040A0404B
S1130390E1F700C0000037C0819919C0C701BCDE75
S11303A08091120190911301F801E80FF91F9082D6
S11303B0019690931301809312018FEF90E7A2E0CE
S11303C081509040A040E1F700C000001CC0829919
S11303D019C0C701A1DE8091120190911301F801A7
S11303E0E80FF91F60820196909313018093120124
S11303F08FEF90E7A2E081509040A040E1F700C069
S1130400000001C080B380911201909113018530E6
S113041091050CF4D9CE8C5E9E4FDC011C92DF91C9
S1130420CF911F910F91FF90EF90DF90CF90BF90ED
S1130430AF909F908F907F906F905F90089584E12C
S113044091E069E071E0F0D0282F392F21153105B2
S1130450B1F482E690E060DE80EC3CDE8BE690E076
S11304605BDE8FEF90E7A2E081509040A040E1F77F
S113047000C0000081E02EDE80E090E0EDD084E753
S113048090E04ADE80EC26DE82E690E045DE8FEFE7
S113049091EEA4E081509040A040E1F700C000003C
S11304A081E018DE8EE790E037DE8FEF90E7A2E080
S11304B081509040A040E1F700C0000081E00ACEE6
S11304C08FEF91E1AAE781509040A040E1F700C08E
S11304D000008EE790E020DE81E0FCCD89E890E02A
S11304E01BDE80ECF7DD83E990E016DE81E0F2DDCF
S11304F02ADE81E0EFDD84E191E069E071E094D0EF
S1130500282F392F2115310551F58DE990E004DEAE
S113051080ECE0DD82E690E0FFDD8FEF91EEA4E079
S113052081509040A040E1F700C0000081E0D2DD9E
S11305300ADE81E0CFDD89E091E064E171E046E02C
S113054050E07BD086EA90E0E7DD81E0C3DDFBDDAF
S113055081E0C0DD109211011092100170CF87EB81
S113056090E0DADD80ECB6DD82EC90E0D5DD81E070
S1130570B1DD80E090E070D0D898D098B5DDCBECB8
S1130580D0E00AED10E00F2EFAEEEF2EF0E0FF2E91
S1130590F02D0F2EF7EFCF2EF0E0DF2EF02D80910F
S11305A01001909111018230910594F4CCDD81E029
S11305B091DD45DF10921301109212018091100118
S11305C09091110101969093110180931001E7CF4E
S11305D0CE01A2DD80EC7EDDC8019EDD8FEF99E6C1
S11305E0A8E181509040A040E1F700C0000081E004
S11305F071DDC89B02C072DFD2CFC7018DDD80ECF4
S113060069DDC60189DD8FEF91EEA4E08150904051
S1130610A040E1F700C0000081E05CDD51DF1092F2
S1130620110110921001BBCFFB01DC018D910190EF
S113063080190110D9F3990B0895FB01DC01415095
S1130640504048F001900D920020C9F701C01D925E
S10F065041505040E0F70895F894FFCFAB
S113065C2A0050415353574F524400414343455091
S113066C54454400494E434F525245435400545947
S113067C504520414741494E004F524947494E414C
S113068C4C200050415353574F524420005459505E
S113069C45204E45570050415353574F5244204325
S11306AC48414E47454400594F552041524520413D
S11306BC4E00494E5452554445520057414E542015
S11306CC544F2052455345542000594F55522050F5
S11306DC415353574F5244203F00545259204954CC
S11306EC20414741494E0041465445522033302065
S11306FC5365636F6E64732E0031323334350000EE
S9030000FC
