S01E000032332E4C43445F535452494E475F504F494E544552532E7372656397
S113000029C0000042C0000040C000003EC0000003
S11300103CC000003AC0000038C0000036C00000F8
S113002034C0000032C0000030C000002EC0000008
S11300302CC000002AC0000028C0000026C0000018
S113004024C0000022C0000020C000001EC0000028
S11300501CC0000011241FBECFE5D4E0DEBFCDBF1D
S113006010E0A0E6B0E0EEE3F1E002C005900D92EE
S1130070AA37B107D9F710E0AAE7B0E001C01D9292
S1130080AA37B107E1F753D058C0BACF85BB9098CF
S11300909198929A8FEC97E00197F1F700C00000D5
S11300A092988FE99FE00197F1F700C0000008954E
S11300B08FEF84BB87E081BB88E3E8DF8EE0E6DF77
S11300C086E0E4DF81E0E2CF85BB909A9198929A32
S11300D08FEC97E00197F1F700C0000092988FE948
S11300E09FE00197F1F700C000000895CF93DF93DC
S11300F0EC018881882371F02196E6DF8FEF90E789
S1130100A2E081509040A040E1F700C00000899136
S1130110882399F7DF91CF91089580E8B7DF80E6CF
S113012090E0E4DF80ECB2DF8DE690E0DFCFC0DF6B
S1110130D09881E0ABDFF1DFFCCFF894FFCF75
S113013E4741424241522053494E474800414B41A8
S10D014E5348204B554D4152000068
S9030000FC
