S01E000032312E4C43445F55524E414D455F4F5448524E414D452E73726563BE
S113000029C0000042C0000040C000003EC0000003
S11300103CC000003AC0000038C0000036C00000F8
S113002034C0000032C0000030C000002EC0000008
S11300302CC000002AC0000028C0000026C0000018
S113004024C0000022C0000020C000001EC0000028
S11300501CC0000011241FBECFE5D4E0DEBFCDBF1D
S113006010E0A0E6B0E0E4EAF1E002C005900D92F1
S1130070AA37B107D9F710E0AAE7B0E001C01D9292
S1130080AC37B107E1F780D08BC0BACF85BB90986D
S11300909198929A8FEC97E00197F1F700C00000D5
S11300A092988FE99FE00197F1F700C0000008954E
S11300B08FEF84BB87E081BB88E3E8DF8EE0E6DF77
S11300C086E0E4DF81E0E2CF85BB909A9198929A32
S11300D08FEC97E00197F1F700C0000092988FE948
S11300E09FE00197F1F700C000000895CF93DF93DC
S11300F010927B0010927A0080E090E0C0E6D0E09D
S11301008C0F9D1FDC018C91DFDF8FEF90E7A2E065
S113011081509040A040E1F700C0000080917A0037
S113012090917B00019690937B0080937A008031BC
S1130130910534F3DF91CF910895CF93DF9310921B
S11301407B0010927A0080E090E0CCE6D0E08C0F47
S11301509D1FDC018C91B8DF8FEF90E7A2E0815006
S11301609040A040E1F700C0000080917A00909197
S11301707B00019690937B0080937A0080319105F7
S113018034F3DF91CF91089593DFD098C89B04C0D6
S1130190D4DF81E07BDFFACFA9DF81E077DFF6CF20
S10701A0F894FFCFFD
S11301A4414B415348204B554D4152004741424233
S10D01B441522053494E4748000011
S9030000FC
