:1000000029C0000042C0000040C000003EC0000007
:100010003CC000003AC0000038C0000036C00000FC
:1000200034C0000032C0000030C000002EC000000C
:100030002CC000002AC0000028C0000026C000001C
:1000400024C0000022C0000020C000001EC000002C
:100050001CC0000011241FBECFE5D4E0DEBFCDBF21
:1000600010E0A0E6B0E0E2E9F5E002C005900D92F4
:10007000AC3BB107D9F710E0ACEBB0E001C01D928A
:10008000A93CB107E1F760D282C2BACF549A83E3A8
:1000900089B908958BBBD898D998DA9A8FEC97E0F4
:1000A0000197F1F700C00000DA988FE99FE001970F
:1000B000F1F700C0000008958BBBD89AD998DA9A5E
:1000C0008FEC97E00197F1F700C00000DA988FE914
:1000D0009FE00197F1F700C00000089587B38F609B
:1000E00087BB88B3856088BB8FEF96E1A1E1815023
:1000F0009040A040E1F700C0000088B38A6088BB50
:100100008FEF96E1A1E181509040A040E1F700C05F
:1001100000000895CF93C82F807FBCDF8C2F82957D
:10012000807FB8DFCF9108958FEF8ABB82E0F2DF46
:1001300088E2F0DF8EE0EEDF86E0ECDF81E0EACF00
:10014000CF93C82F807FB8DF8C2F8295807FB4DF5C
:10015000CF910895CF93DF93EC018881882371F0CC
:100160002196EEDF8FEF90E7A2E081509040A04013
:10017000E1F700C000008991882399F7DF91CF91C2
:1001800008955F926F927F928F929F92AF92BF92EB
:10019000CF92DF92EF92FF920F931F93CF93DF9353
:1001A000CFE0D0EF0F2EF0E6EF2EF0E0FF2EF02D97
:1001B0000EEB10E00F2EF1E38F2EF02D0F2EF4E357
:1001C000BF2EF02D0F2EF7E3DF2EF02D0F2EF0E3D4
:1001D0005F2EF02D0F2EF2E37F2EF02D0F2EF5E384
:1001E000AF2EF02D0F2EF8E3CF2EF02D0F2EF3E3D0
:1001F0006F2EF02D0F2EF6E39F2EF02D1FC1C5BBE5
:10020000D4BB85B3806E85BB989919C0C701A2DFA6
:100210008091BC009091BD00F801E80FF91FD082D9
:1002200001969093BD008093BC008FEF90E7A2E011
:1002300081509040A040E1F700C0000037C099997C
:1002400019C0C70187DF8091BC009091BD00F80103
:10025000E80FF91FB08201969093BD008093BC0017
:100260008FEF90E7A2E081509040A040E1F700C0FE
:1002700000001CC09A9919C0C7016CDF8091BC00B6
:100280009091BD00F801E80FF91F808201969093CC
:10029000BD008093BC008FEF90E7A2E081509040BA
:1002A000A040E1F700C0000001C083B3C5BBD4BBD0
:1002B00085B3806D85BB989919C0C7014BDF8091CC
:1002C000BC009091BD00F801E80FF91FC0820196B3
:1002D0009093BD008093BC008FEF90E7A2E0815027
:1002E0009040A040E1F700C0000050C0999919C0AB
:1002F000C70130DF8091BC009091BD00F801E80F8C
:10030000F91FA08201969093BD008093BC008FEFEF
:1003100090E7A2E081509040A040E1F700C00000CB
:1003200035C09A9919C0C70115DF8091BC00909122
:10033000BD00F801E80FF91F708201969093BD008F
:100340008093BC008FEF90E7A2E081509040A040E6
:10035000E1F700C000001AC09B9918C0C701FADE7F
:100360008091BC009091BD00F801E80FF91F508208
:1003700001969093BD008093BC008FEF90E7A2E0C0
:1003800081509040A040E1F700C00000C5BBD4BB45
:1003900085B3806B85BB98991AC0C701DBDE80915D
:1003A000BC009091BD00F801E80FF91F29E32083FC
:1003B00001969093BD008093BC008FEF90E7A2E080
:1003C00081509040A040E1F700C0000037C09999EB
:1003D00019C0C701BFDE8091BC009091BD00F8013B
:1003E000E80FF91F908201969093BD008093BC00A6
:1003F0008FEF90E7A2E081509040A040E1F700C06D
:1004000000001CC09A9919C0C701A4DE8091BC00ED
:100410009091BD00F801E80FF91F6082019690935A
:10042000BD008093BC008FEF90E7A2E08150904028
:10043000A040E1F700C0000001C083B38091BC0080
:100440009091BD00853091050CF4D9CE82549F4F18
:10045000DC011C92DF91CF911F910F91FF90EF90E3
:10046000DF90CF90BF90AF909F908F907F906F90D4
:100470005F90089584EC90E061EB70E07FD0282FCE
:10048000392F2115310559F482E690E063DE80ECC6
:1004900041DE8DE690E05EDE81E03CDE1FCE089519
:1004A0001092BD001092BC00E4ECF0E080E090E01F
:1004B0005F9BFECF2CB1219301969093BD0080935A
:1004C000BC0084309105A1F7D5CF8EEB90E066EBB0
:1004D00070E054D0282F392F21153105A1F482E77F
:1004E00090E038DE80EC16DE8CE790E033DE8FEFB4
:1004F00090E7A2E081509040A040E1F700C00000EA
:1005000081E008DECDCF84E890E024DE80EC02DEDE
:100510008EE890E01FDE8FEF91EEA4E081509040D6
:10052000A040E1F700C0000081E0F4DD87E990E041
:1005300011DE8FEF90E7A2E081509040A040E1F7FC
:1005400000C0000081E0E6CDA1DDEEDDC2EAD0E032
:10055000CE0100DE8FEF91EEA4E081509040A040EC
:10056000E1F700C0000081E0D5DD0BDE81E0D2DDE7
:10057000ACDF1092BD001092BC00EACFFB01DC01A1
:100580008D91019080190110D9F3990B0895F89479
:02059000FFCF9B
:100592002A00484F4D4520535745455400484F4D7A
:1005A200450053484F5720594F5552004944204364
:1005B20041524400494E434F525245435400504128
:1005C2005353574F524400545950452041474149D3
:1005D2004E00454E5445522050415353574F5244BA
:0C05E20000363950390031323334350016
:00000001FF
