S019000031342E4F42535441434C455F41564F49442E7372656359
S113000029C0000042C0000040C000003EC0000003
S11300103CC000003AC0000038C0000036C00000F8
S113002034C0000032C0000030C000002EC0000008
S11300302CC000002AC0000028C0000026C0000018
S113004024C0000022C0000020C000001EC0000028
S11300501CC0000011241FBECFE5D4E0DEBFCDBF1D
S113006010E0A0E6B0E0E2E9F0E002C005900D92F5
S1130070A036B107D9F710E0A0E6B0E001C01D92A8
S1130080A036B107E1F702D002C0BACF0895F894C0
S1050090FFCF9C
S9030000FC
