:1000000029C0000042C0000040C000003EC0000007
:100010003CC000003AC0000038C0000036C00000FC
:1000200034C0000032C0000030C000002EC000000C
:100030002CC000002AC0000028C0000026C000001C
:1000400024C0000022C0000020C000001EC000002C
:100050001CC0000011241FBECFE5D4E0DEBFCDBF21
:1000600010E0A0E6B0E0EEEDF4E002C005900D92E5
:10007000A039B107D9F710E0A0E9B0E001C01D92A6
:10008000A839B107E1F716D228C2BACF85BBA89824
:10009000A998AA9A8FEC97E00197F1F700C00000A9
:1000A000AA988FE99FE00197F1F700C0000008953A
:1000B00085BBA89AA998AA9A8FEC97E00197F1F7C7
:1000C00000C00000AA988FE99FE00197F1F700C0F7
:1000D00000000895CF93C82F807FD8DF8C2F8295A2
:1000E000807FD4DFCF9108958FEF84BB87E081BB01
:1000F00082E0F0DF88E2EEDF8EE0ECDF86E0EADF30
:1001000081E0E8CFCF93C82F807FD2DF8C2F8295FC
:10011000807FCEDFCF910895CF93DF93EC0188816C
:10012000882371F02196EEDF8FEF90E7A2E08150F7
:100130009040A040E1F700C000008991882399F722
:10014000DF91CF9108955F926F927F928F929F92ED
:10015000AF92BF92CF92DF92EF92FF920F931F93D5
:10016000CF93DF93CFE0D0EF0F2EF0E6EF2EF0E04D
:10017000FF2EF02D02E910E00F2EF1E38F2EF02D6F
:100180000F2EF4E3BF2EF02D0F2EF7E3DF2EF02D10
:100190000F2EF0E35F2EF02D0F2EF2E37F2EF02DC9
:1001A0000F2EF5E3AF2EF02D0F2EF8E3CF2EF02D0E
:1001B0000F2EF3E36F2EF02D0F2EF6E39F2EF02D72
:1001C0001FC1C2BBD1BB82B3806E82BB809919C0F4
:1001D000C701A2DF8091900090919100F801E80F93
:1001E000F91FD082019690939100809390008FEF39
:1001F00090E7A2E081509040A040E1F700C00000ED
:1002000037C0819919C0C70187DF80919000909114
:100210009100F801E80FF91FB082019690939100C8
:10022000809390008FEF90E7A2E081509040A04033
:10023000E1F700C000001CC0829919C0C7016CDF43
:100240008091900090919100F801E80FF91F808251
:10025000019690939100809390008FEF90E7A2E039
:1002600081509040A040E1F700C0000001C080B381
:10027000C2BBD1BB82B3806D82BB809919C0C7015C
:100280004BDF8091900090919100F801E80FF91FE9
:10029000C082019690939100809390008FEF90E739
:1002A000A2E081509040A040E1F700C0000050C0A3
:1002B000819919C0C70130DF809190009091910021
:1002C000F801E80FF91FA0820196909391008093A6
:1002D00090008FEF90E7A2E081509040A040E1F7BE
:1002E00000C0000035C0829919C0C70115DF809198
:1002F000900090919100F801E80FF91F708201962B
:1003000090939100809390008FEF90E7A2E081504E
:100310009040A040E1F700C000001AC0839918C0C7
:10032000C701FADE8091900090919100F801E80FEA
:10033000F91F5082019690939100809390008FEF67
:1003400090E7A2E081509040A040E1F700C000009B
:10035000C2BBD1BB82B3806B82BB80991AC0C7017C
:10036000DBDE8091900090919100F801E80FF91F79
:1003700029E32083019690939100809390008FEF62
:1003800090E7A2E081509040A040E1F700C000005B
:1003900037C0819919C0C701BFDE8091900090914C
:1003A0009100F801E80FF91F908201969093910057
:1003B000809390008FEF90E7A2E081509040A040A2
:1003C000E1F700C000001CC0829919C0C701A4DE7B
:1003D0008091900090919100F801E80FF91F6082E0
:1003E000019690939100809390008FEF90E7A2E0A8
:1003F00081509040A040E1F700C0000001C080B3F0
:100400008091900090919100853091050CF4D9CEA7
:100410008E569F4FDC011C92DF91CF911F910F915F
:10042000FF90EF90DF90CF90BF90AF909F908F9014
:100430007F906F905F90089582E990E069E870E0A6
:1004400043D0282F392F2115310599F482E690E009
:1004500063DE80EC3FDE8BE690E05EDE8FEF90E7C0
:10046000A2E081509040A040E1F700C0000081E090
:1004700031CE84E790E050DE80EC2CDE82E690E026
:100480004BDE8FEF91EEA4E081509040A040E1F769
:1004900000C0000081E01EDE8EE790E03DDE8FEFC1
:1004A00090E7A2E081509040A040E1F700C000003A
:1004B00081E010CE19DE47DE81E00CDEBDDF109258
:1004C000910010929000F7CFFB01DC018D9101901B
:0E04D00080190110D9F3990B0895F894FFCF0D
:1004DE002A0050415353574F524400414343455015
:1004EE0054454400494E434F5252454354005459CB
:1004FE00504520414741494E0037373737370000C6
:00000001FF
