S017000033302E52585F55534152545F4C43442E73726563B2
S113000029C0000042C0000040C000003EC0000003
S11300103CC000003AC0000038C0000036C00000F8
S113002034C0000032C0000030C000002EC0000008
S11300302CC000002AC0000028C0000026C0000018
S113004024C0000022C0000020C000001EC0000028
S11300501CC0000011241FBECFE5D4E0DEBFCDBF1D
S113006010E0A0E6B0E0EEEAF1E002C005900D92E7
S1130070A036B107D9F710E0A0E6B0E001C01D92A8
S1130080A236B107E1F78DD090C0BACF549A83E37A
S113009089B908958BBBD898D998DA9A8FEC97E0F0
S11300A00197F1F700C00000DA988FE99FE001970B
S11300B0F1F700C0000008958BBBD89AD998DA9A5A
S11300C08FEC97E00197F1F700C00000DA988FE910
S11300D09FE00197F1F700C000000895CF93C82F67
S11300E0807FD8DF8C2F8295807FD4DFCF910895D5
S11300F08FEF8ABB82E0F2DF88E2F0DF8EE0EEDF92
S113010086E0ECCFCF93C82F807FD6DF8C2F8295EB
S1130110807FD2DFCF910895CF93DF93EC01888164
S1130120882371F02196EEDF8FEF90E7A2E08150F3
S11301309040A040E1F700C000008991882399F71E
S1130140DF91CF91089510926100109260005F9B3F
S1130150FECF8CB190E0E0DF80916000909161006F
S1130160019690936100809360008D3091057CF33B
S113017080ECB4DF10926100109260005F9BFECFB0
S11301808CB190E0C9DF809160009091610001968C
S113019090936100809360008D3091057CF381E041
S11101A09DCF74DFA5DFCFDFFECFF894FFCF35
S9030000FC
