S01C000032302E4C43445F53575F4D594E414D455F4F46462E737265633C
S113000029C0000042C0000040C000003EC0000003
S11300103CC000003AC0000038C0000036C00000F8
S113002034C0000032C0000030C000002EC0000008
S11300302CC000002AC0000028C0000026C0000018
S113004024C0000022C0000020C000001EC0000028
S11300501CC0000011241FBECFE5D4E0DEBFCDBF1D
S113006010E0A0E6B0E0ECE9F1E002C005900D92EA
S1130070AC37B107D9F710E0ACE7B0E001C01D928E
S1130080AE37B107E1F77DD087C0BACF85BB909872
S11300909198929A8FEC97E00197F1F700C00000D5
S11300A092988FE99FE00197F1F700C0000008954E
S11300B08FEF84BB87E081BB88E3E8DF8EE0E6DF77
S11300C086E0E4DF81E0E2CF85BB909A9198929A32
S11300D08FEC97E00197F1F700C0000092988FE948
S11300E09FE00197F1F700C000000895CF93DF93DC
S11300F010927D0010927C0080E090E0C0E7D0E098
S11301008C0F9D1FDC018C91DFDF8FEF90E7A2E065
S113011081509040A040E1F700C0000080917C0035
S113012090917D00019690937D0080937C008B30AC
S1130130910534F380ECAADF10927D0010927C00CC
S113014080E090E0C0E6D0E08C0F9D1FDC018C9134
S1130150BBDF8FEF90E7A2E081509040A040E1F731
S113016000C0000080917C0090917D0001969093E6
S11301707D0080937C008031910534F3DF91CF9131
S1130180089596DFD098C89B04C0B0DF81E07EDF7D
S10F0190FACF12BA15BAF7CFF894FFCFDB
S113019C4D41495349452057494C4C49414D530015
S10F01AC4152594120535441524B000071
S9030000FC
