:1000000029C0000042C0000040C000003EC0000007
:100010003CC000003AC0000038C0000036C00000FC
:1000200034C0000032C0000030C000002EC000000C
:100030002CC000002AC0000028C0000026C000001C
:1000400024C0000022C0000020C000001EC000002C
:100050001CC0000011241FBECFE5D4E0DEBFCDBF21
:1000600010E0A0E6B0E0E0EFF0E002C005900D92F5
:10007000A836B107D9F710E0A8E6B0E001C01D929C
:10008000A836B107E1F702D031C0BACFCF93DF93E2
:10009000CDB7DEB727970FB6F894DEBF0FBECDBF42
:1000A0008FEF8ABBDE011196E0E6F0E087E0019079
:1000B0000D928150E1F780E090E020E030E0E1E057
:1000C000F0E0EC0FFD1FE80FF91F40814BBB4FEF35
:1000D00050E762E0415050406040E1F700C000004E
:1000E0000196873091055CF3C901E9CFF894FFCF01
:0800F000814224182442810022
:00000001FF
