:1000000029C0000042C0000040C000003EC0000007
:100010003CC000003AC0000038C0000036C00000FC
:1000200034C0000032C0000030C000002EC000000C
:100030002CC000002AC0000028C0000026C000001C
:1000400024C0000022C0000020C000001EC000002C
:100050001CC0000011241FBECFE5D4E0DEBFCDBF21
:1000600010E0A0E6B0E0EAE6F1E002C005900D92F3
:10007000AA37B107D9F710E0AAE7B0E001C01D9296
:10008000AA37B107E1F769D06EC0BACF85BBA8988F
:10009000A998AA9A8FEC97E00197F1F700C00000A9
:1000A000AA988FE99FE00197F1F700C0000008953A
:1000B00085BBA89AA998AA9A8FEC97E00197F1F7C7
:1000C00000C00000AA988FE99FE00197F1F700C0F7
:1000D00000000895CF93C82F807FD8DF8C2F8295A2
:1000E000807FD4DFCF9108958FEF84BB87E081BB01
:1000F00082E0F0DF88E2EEDF8EE0ECDF86E0EADF30
:1001000081E0E8CFCF93C82F807FD2DF8C2F8295FC
:10011000807FCEDFCF910895CF93DF93EC0188816C
:10012000882371F02196EEDF8FEF90E7A2E08150F7
:100130009040A040E1F700C000008991882399F722
:10014000DF91CF91089580E8C5DF80E690E0E4DF9D
:1001500080ECC0DF8DE690E0DFCFC6DFD09881E095
:0A016000B9DFF1DFFCCFF894FFCF08
:10016A004741424241522053494E474800414B4180
:0A017A005348204B554D4152000040
:00000001FF
