:1000000029C0000042C0000040C000003EC0000007
:100010003CC000003AC0000038C0000036C00000FC
:1000200034C0000032C0000030C000002EC000000C
:100030002CC000002AC0000028C0000026C000001C
:1000400024C0000022C0000020C000001EC000002C
:100050001CC0000011241FBECFE5D4E0DEBFCDBF21
:1000600010E0A0E6B0E0E2EFF2E002C005900D92F1
:10007000A83BB107D9F710E0A8EBB0E001C01D9292
:10008000A73CB107E1F725D132C1BACF1092C60023
:100090001092C500E8EBF0E080E090E05F9BFECFBF
:1000A0002CB1219301969093C6008093C5008D30AA
:1000B0009105A1F71092C50008958BBBD898D998E7
:1000C000DA9A8FEC97E00197F1F700C00000DA9818
:1000D0008FE99FE00197F1F700C0000008958BBB06
:1000E000D89AD998DA9A8FEC97E00197F1F700C087
:1000F0000000DA988FE99FE00197F1F700C0000057
:100100000895CF93C82F807FD8DF8C2F8295807F72
:10011000D4DFCF9108958FEF8ABB82E0F2DF88E2CF
:10012000F0DF8EE0EEDF86E0ECCFCF93C82F807F4C
:10013000D6DF8C2F8295807FD2DFCF910895549A9D
:1001400083E389B90895CF93DF93EC0188818823F5
:1001500071F02196EADF8FEF90E7A2E081509040A6
:10016000A040E1F700C000008991882399F7DF9152
:10017000CF910895CF92DF92EF92FF920F931F934A
:10018000CF93DF931092C6001092C50060E070E03C
:10019000C8EBD0E000E610E00F2EF9E6EF2EF0E01D
:1001A000FF2EF02D0F2EF1E7CF2EF0E0DF2EF02DF9
:1001B000660F771FCB01880F991F880F991F880F33
:1001C000991F680F791F64577F4FCE0187D0282F62
:1001D000392F2115310509F049C0C801B4DF8091DC
:1001E000C5009091C600880F991F9C01220F331FF4
:1001F000220F331F220F331F820F931F8E579F4FE3
:10020000A2DF80EC7EDFC7019EDF8091C500909168
:10021000C600880F991F9C01220F331F220F331F26
:10022000220F331F820F931F84579F4F8CDFC6010D
:100230008ADF8091C5009091C600880F991F9C01AC
:10024000220F331F220F331F220F331F820F931FE2
:100250008F569F4F78DF8FEF91EEA4E08150904052
:10026000A040E1F700C0000081E04BDF6091C500D5
:100270007091C6006F5F7F4F7093C6006093C5009A
:10028000653071050CF494CF1092C6001092C50031
:1002900088EB90E06CE870E021D0282F392F2115F1
:1002A000310571F085E790E04EDF8FEF91EEA4E02D
:1002B00081509040A040E1F700C0000081E021DFC4
:1002C000DF91CF911F910F91FF90EF90DF90CF9032
:1002D000089521DF34DFDADE4DDFFDCFFB01DC01E5
:1002E0008D91019080190110D9F3990B0895F8941C
:0202F000FFCF3E
:1002F20057454C434F4D453A00524F4C4C4E4F3AA6
:100302000041474500494E56414C4944205553450A
:10031200520052414D0000000000000033383331DA
:1003220000313700414B4153480000000000333890
:100332003332003138004E415644454550000000EA
:0803420033383333003136007B
:00000001FF
